:020000040002F8
:1060000030BB0020F16A04004F970200CB9F0200D2
:10601000CBA50200C3BB02004BBE02000000000083
:106020000000000000000000000000005FD6020039
:106030009F37030000000000DF560300D376030003
:10604000BDC70300EB920300016B040033A2030001
:106050006BA2030023AB0300E9E403001DD003009F
:10606000DFAB0300DFBE03006763040033C303003C
:10607000D7C303005FF20300F7C9030003DE030088
:1060800007DE0300F9A80300DBDE0300E3F00300F2
:1060900025A9030007360400454103007759040091
:1060A000BF5A04008D66040075630400B3680400E1
:1060B000BF680400FF6C0400000000000000000046
:1060C000716D0400736D0400756D0400776D04003C
:1060D000D5B80300796D04007B6D0400000000005A
:1060E00000000000000000000000000000000000B0
:1060F00000000000000000000000000000000000A0
:10610000000000000000000000000000000000008F
:10611000000000000000000000000000000000007F
:10612000000000000000000000000000000000006F
:10613000000000000000000000000000000000005F
:10614000000000000000000000000000000000004F
:10615000000000000000000000000000000000003F
:10616000000000000000000000000000000000002F
:10617000000000000000000000000000000000001F
:10618000000000000000000000000000000000000F
:1061900000000000000000000000000000000000FF
:1061A00000000000000000000000000000000000EF
:1061B00000000000000000000000000000000000DF
:1061C00000000000000000000000000000000000CF
:1061D00000000000000000000000000000000000BF
:1061E00000000000000000000000000000000000AF
:1061F000000000000000000000000000000000009F
:1062000070B50C00002500220023C4E90023B0F57E
:106210000066300000B210F5006F12DB300000B2F3
:1062200040F6010188420CDA300000B202F03AFA7E
:10623000DFF8D02CD2E9002302F082FAC4E9000191
:1062400001E0042005002800C0B270BD10B52DED9E
:10625000048BB0EE408AF0EE608A51EC180B02F02D
:106260005DFB0400200002F01DFA02000B0051EC5F
:10627000180B02F07FFB41EC190B51EC190B0022BB
:10628000DFF8843C02F0ECFB00D8641C200002F034
:1062900009FA41EC100BBDEC048B10BD80B52DED5F
:1062A000028BB0EE408AF0EE608A51EC180B0022AF
:1062B000002302F0D5FB08D353EC182B0020DFF8A5
:1062C000B41C02F03DFA41EC180BB0EE480AF0EEB7
:1062D000680ABDEC028B01BD10B40200501A030025
:1062E0001BB2002B00D51E3003001BB21E2B05DB9A
:1062F00000B21E2390FBF3F403FB140080B210BC29
:10630000704700009FED9E0B80ED0A0B9FEDAF1BC9
:1063100080ED081B80ED0E0B80ED0C1B80ED020B59
:1063200080ED001B80ED060B80ED041B80ED100B53
:1063300001218164F021C16480ED140B80ED160B06
:106340004FF4E15101664FF4B441416680ED1A0B00
:106350003C21016770474FF4FA6181800F21016091
:106360000F2101820A2181600521C1601E21418225
:1063700070470022DFF8003CC0E900230022DFF86C
:10638000FC3BC0E902230022DFF8F43BC0E9042310
:106390000022DFF8F03BC0E906230022DFF8903C42
:1063A000C0E908230022DFF88C3CC0E90A237047CB
:1063B000012101700521818000214180418851F037
:1063C00001014180418851F002014180418851F032
:1063D00004014180418851F020014180418851F001
:1063E00040014180418851F080014180418851F451
:1063F00080714180418851F400714180418851F49D
:1064000000614180418851F4805141800C21C1805C
:10641000DFF8242CDFF8243CC0E902230F2101829D
:10642000052181740A21C1741E2101750521C182D3
:1064300070470721018070470FB42DE9F0412DED21
:10644000028B0E9E0F9F5FF000089FED608B87ED23
:10645000008B0B98002802D1062080462CE03000EB
:1064600080B20B99884227D20B9802F011FB53ECB3
:10647000182B02F01BFB04000D00300080B202F06C
:1064800007FB02000B002000290002F073FA040051
:106490000D000B9802F0FCFA02000B00200029000E
:1064A00002F0C2FBDDE9082302F04AF953EC182B95
:1064B00002F0FCFAC7E900014046C0B2BDEC028B15
:1064C000BDE8F0015DF814FB0FB42DE9F8432DEDA4
:1064D000048B129C149D159E00279FED3C9BB0EEF3
:1064E000498AF0EE698A85ED009B00200021C6E90B
:1064F00000010F980E99884202D10620070035E06E
:106500000E98210089B2884230D2200080B20F99C3
:1065100088422BD2200080B20E99401A02F0B8FABD
:10652000804689460F980E99401A02F0B1FA02008F
:106530000B004046494602F077FBDDE90C2302F0F0
:10654000FFF853EC192B02F0B1FA41EC180B2000C4
:1065500080B202F09DFA0022DFF8243D02F064FBD5
:10656000DDE9102302F0ECF8C6E9000185ED008BAF
:106570003800C0B2BDEC048BBDE8F2035DF814FB3B
:10658000000000000000000070B52DED028B05003A
:106590000E009FEDA38B0121300080B2FFF79CFE1F
:1065A0000400A022300080B250432844D0E91001FA
:1065B00023009BB202FB03F22A44D2E9102302F02B
:1065C000D9F941EC100BBDEC028B70BD000000004E
:1065D0000000F03F38B52DED028B04000D0094ED66
:1065E0001E8B002084F890002088290089B2884200
:1065F0004BD351EC180B0022DFF8883902F030FA47
:1066000003D8012084F8900042E051EC180B0022DE
:106610005FF0804302F024FA03D8022084F890004F
:1066200036E051EC180B0022DFF8483C02F018FA73
:1066300003D8032084F890002AE051EC180B0022C4
:10664000DFF8303902F00CFA03D8042084F8900007
:106650001EE051EC180B00225FF0404302F000FAFC
:1066600003D8052084F8900012E051EC180B0022AA
:10667000DFF80C3902F0F4F903D8062084F8900012
:1066800006E0072084F8900002E0002084F89000E3
:10669000BDEC028B31BD00002DE9F44F2DED108BC8
:1066A00082B004008B469A460025BDF848609FEDF5
:1066B0005C8BB0EE489AF0EE689AB0EE48AAF0EE25
:1066C00068AA504680B202F0E3F941EC1B0BB0EE31
:1066D00048CAF0EE68CAB0EE48DAF0EE68DAB0EE1A
:1066E00048EAF0EE68EA0027504680B2874251DA65
:1066F0005FF0A00808FB06F0205A02F0C9F941EC4F
:10670000190B5846C0B200280AD008FB06F804EB63
:10671000080090ED100BB0EE40AAF0EE60AA09E080
:1067200008FB06F804EB080090ED1A0BB0EE40AA47
:10673000F0EE60AA53EC1C2B51EC190B02F0B6F9E9
:1067400041EC1C0B53EC192B51EC190B01F0F8FF29
:1067500053EC1D2B02F0AAF941EC1D0B53EC1E2B40
:1067600051EC1A0B02F0A2F941EC1E0B53EC1A2B60
:1067700051EC190B01F0E4FF53EC182B02F096F9E1
:1067800041EC180B0121300080B2FFF7A5FD060097
:106790007F1CA9E753EC1B2B51EC180B01F0D0FF29
:1067A0008046894653EC1C2B51EC1E0B01F0C8FFB0
:1067B00002000B004046494602F0DCF8CDE900013A
:1067C00053EC1B2B51EC1D0B01F0BAFF80468946A0
:1067D00053EC1C2B51EC1C0B01F0B2FF02000B0020
:1067E0004046494602F0C6F841EC1F0B53EC1F2B04
:1067F0000020002102F03CFB09D0DDE9000153EC50
:106800001F2B02F011FA1C9AC2E9000101E00620D8
:1068100005002800C0B202B0BDEC108BBDE8F28FBD
:1068200000000000000000002DE9F8432DED068B6C
:10683000070088465FF000099FEDD29BB0EE498AC1
:10684000F0EE698A444624B20121404680B2FFF747
:1068500043FD05000026300080B20F285DDAA0223B
:1068600014FB02F03844D0E91A0115FB02F23A4455
:10687000D2E91A2302F07EF841EC1A0B51EC1A0B04
:106880000022DFF8C03C02F003FB0FD2DFF8B80CA7
:10689000310089B200EBC100D0E900230020DFF80D
:1068A000A41C01F04DFF41EC190B25E051EC1A0B33
:1068B0000122DFF8983C02F0D3F80FD8DFF8880CFB
:1068C000310089B200EBC100D0E900230020DFF8DD
:1068D0007C1C01F035FF41EC190B0DE053EC1A2B39
:1068E000DFF8640C310089B200EBC100D0E900018F
:1068F00001F026FF41EC190B53EC182B51EC190B4E
:1069000002F0D4F841EC180B2C000121200080B2D9
:10691000FFF7E2FC0500761C9DE7B0EE480AF0EEBA
:10692000680ABDEC068BBDE8F1832DE9F0412DED41
:10693000068B04000D00B0EE408AF0EE608A00265F
:106940000121E088FFF7C8FC070041F20230205C1B
:1069500040063CD5608A022839DBA022380080B28C
:106960005043204490F8D40080464046C0B20028EE
:1069700003D04046C0B2042829D12888390089B202
:1069800051432144B1F84010491C88421FD1D5E938
:106990001C013B009BB202FB03F22244D2E92C23F0
:1069A00001F0E8FF41EC1A0BB0EE4A0AF0EE6A0A79
:1069B000FFF774FCB0EE409AF0EE609A51EC180BC1
:1069C00053EC192B02F064FA01D2012006003000CA
:1069D000C0B2BDEC068BBDE8F08100007CB50400C0
:1069E0000D0000262089032840DB208910280BDBBE
:1069F00015F1800000900F23E288002114F140007F
:106A0000FFF74AFE06000AE015F180000090238996
:106A1000E288002114F14000FFF73EFE06002089C5
:106A200010280EDBE18814F14000FFF7FDFE85ED34
:106A30001E0B41F2B830215889B22800FFF7CAFD79
:106A40001DE03000C0B200280BD195ED200B85ED84
:106A50001E0B41F2B830215889B22800FFF7BAFD69
:106A60000DE000200021C5E9200108E09FED450B65
:106A700085ED1E0B85ED200B002085F89000300081
:106A8000C0B276BD38B52DED0A8B04000D00B0EE16
:106A9000408AF0EE608AB0EE419AF0EE619A9FED86
:106AA00039BBB0EE4BAAF0EE6BAAB0EE4BCAF0EEDB
:106AB0006BCA41F20230205A80045CD5D5E920230C
:106AC0000020002102F0D4F950D0D5E920010022A5
:106AD000DFF8A03401F0C4FF0CD8D5E92001012271
:106AE000DFF8903702F0D4F904D2B0EE4BAAF0EE02
:106AF0006BAA1AE0D5E920010122DFF8783701F00E
:106B0000AFFF09D8D5E920230020DFF8681401F091
:106B1000CDFF41EC1A0B08E0D5E920230020DFF877
:106B2000541701F0C3FF41EC1A0B51EC1A0B002271
:106B3000002301F095FF08D253EC1A2B51EC180BEF
:106B400001F0FEFD41EC1C0B07E053EC1A2B51EC5D
:106B5000190B01F0F5FD41EC1C0BD5E91A2351ECA2
:106B60001C0B01F0A3FFC5E91C0108E095ED1A0B11
:106B700085ED1C0B03E095ED1A0B85ED1C0BBDECB0
:106B80000A8B31BD00000000000000002DE9F84331
:106B90002DED028B04000D009146002601212800F6
:106BA00080B2FFF799FB80469FED280BB0EE408A3C
:106BB000F0EE608A89ED000BA027404680B2784352
:106BC000204490F89200800735D4280080B27843A2
:106BD0002044D0E916230020002102F049F92AD0F0
:106BE000280080B278432044D0E91001424692B296
:106BF0007A432244D2E9102301F0BCFE41EC100B91
:106C0000FFF74CFBB0EE408AF0EE608A51EC180BB7
:106C10002A0092B207FB02F704EB0702D2E916231F
:106C200002F002F80022DFF8843B01F089FDC9E997
:106C3000000101200600F6B2300001F029FF41EC0E
:106C4000100BBDEC028BBDE8F183000000000000DA
:106C5000000000002DE9F04105000C00002641F283
:106C6000343028582188884242D2688A012805D1C8
:106C70002088022802DB0820060039E041F20237B2
:106C8000E85BC00509D5D4E90801D4E90A2302F07C
:106C9000FFF802D2062006002AE0E85D000616D5BD
:106CA00041F2383835F8080001F0F2FED4E90A2341
:106CB00002F0EEF808D335F8080001F0E9FED4E957
:106CC000082302F0E5F802D20520060010E0E85D96
:106CD00080060DD515F59A50006801F0D9FE020026
:106CE0000B00D4E9080102F0D3F801D2012006001C
:106CF0003000C0B2BDE8F0812DE9F0412DED028BEE
:106D000004000D0017001E0096ED1C0BFFF79EFA05
:106D1000B0EE408AF0EE608A96F8920010F0030F11
:106D200040F0EC802078002800F0848060888005A6
:106D30000DD551EC180B0022DFF8583C02F0A8F8F2
:106D400005D2B6F8920050F00400A6F892006088D0
:106D500080050DD551EC180B0122DFF83C3C01F009
:106D60007FFE05D8B6F8920050F00800A6F8920011
:106D7000DFF8388CD8E9000153EC182B01F070FED5
:106D800005D8B6F8920050F01000A6F8920051EC29
:106D9000180B0022DFF8F43B02F07AF815D2D8E99C
:106DA000000153EC182B01F0E5FD0022DFF8E03B79
:106DB00001F03AFFD6E9202301F052FE05D8B6F8DB
:106DC000920050F02000A6F8920051EC180BD5E983
:106DD000002302F05DF805D2B6F8920050F04000B2
:106DE000A6F89200D5E9020153EC182B02F050F8F6
:106DF00005D2B6F8920050F08000A6F89200D5E9CE
:106E00000401D6E9202301F02BFE05D8B6F8920044
:106E100050F48070A6F89200D6E92001D5E9062347
:106E200001F01EFE51D8B6F8920050F40070A6F89A
:106E300092004AE0608880050DD551EC180B0022C5
:106E4000DFF8503B02F024F805D2B6F8920050F07B
:106E50000400A6F89200608880050DD551EC180B4F
:106E60000122DFF8343B01F0FBFD05D8B6F89200B3
:106E700050F00800A6F89200DFF8300BD0E90001CE
:106E800053EC182B01F0ECFD05D8B6F8920050F049
:106E90001000A6F8920051EC180BD5E9002301F080
:106EA000F7FF05D2B6F8920050F04000A6F8920025
:106EB000D5E9020153EC182B01F0EAFF05D2B6F830
:106EC000920050F08000A6F8920051EC180BD5E922
:106ED000082301F0DDFF03D2012086F891000DE0C8
:106EE000D5E90A0153EC182B01F0D2FF03D203209D
:106EF00086F8910002E0022086F89100BDEC028B3A
:106F0000BDE8F081A06C04000000E03F3EB5040045
:106F10000D0000200021CDE9000195F8920010F04D
:106F2000030F26D1A07D012823D1608A002820D01C
:106F30006A46E18814F14000FFF728FE53EC102B5D
:106F40000020CC4901F094FF10D141F21630205AB4
:106F500001F09EFDDDE9002301F09AFF03D201203C
:106F600085F8960005E00020A07502E0012085F874
:106F7000960037BD0000F0BF00005440000069409B
:106F8000000008C0000008402DE9FE4F05000E007B
:106F900000270020009041F2F0316858002843D0CB
:106FA000685810F1010F3FD041F2193841F21839F9
:106FB00015F8090015F80820904235D05FF0040A52
:106FC00005EB01000190EB4652460199584601F04D
:106FD00077FF00993288DFF84C0D006800FB021142
:106FE0000091684601F0BFFF040015F8090015F88C
:106FF000081088420CD2A06815F80910884213DBEB
:10700000A06815F8081088420EDA012007000BE08E
:10701000A06815F80910884204DAA06815F808106D
:10702000884201DA012007003800C0B2BDE8FE8FB7
:107030000080514000806640CDCCCCCCCCCCEC3F25
:1070400038B504000D0094F83B00002839D195F8BC
:107050009200800702D4A07D012838D1608A0228DE
:1070600028DB29002000FFF78FFF00282FD141F2F5
:10707000463041F2B8316158225A8918628A9142E9
:1070800025D2215A2A88A08A121A521C91421EDA4D
:10709000B5F8920050F00100A5F89200012084F8A4
:1070A0003B0095F89400002811D194F83C0085F835
:1070B00094000CE02888022809DB2888401EA08262
:1070C00005E0B5F8920050F00100A5F8920031BD3E
:1070D00070B52DED048B04000D000121E088FFF751
:1070E000FBF806009FED649BB0EE498AF0EE698ADA
:1070F00041F20230205A400572D594F83A00012836
:107100006ED1B5F8920000286AD1206B00283BD0E0
:107110002988206B091A41F21030205A81422FDB56
:10712000D5E91601A02216FB02F22244D2E9262359
:1071300001F020FC41EC180BB0EE480AF0EE680AB2
:10714000FFF7ACF8B0EE409AF0EE609A51EC190BF4
:107150000122DFF8FC3C01F083FC0ED82888206374
:10716000072085F89400B5F8920050F00100A5F8CA
:107170009200012084F83B0032E0002020632FE0E1
:10718000012085F896002BE0608A022828DBD5E9EB
:107190001601A02216FB02F22244D2E9262301F0B6
:1071A000E9FB41EC180BB0EE480AF0EE680AFFF775
:1071B00075F8B0EE409AF0EE609A51EC190B01228E
:1071C000DFF88C3C01F04CFC0AD8288820630720AB
:1071D00085F89400B5F8920050F00200A5F89200EE
:1071E000BDEC048B70BD10B40200002041F20233EC
:1071F000D35A1B050AD50B7941F21334145DA3420F
:1072000004D301231800012381F89730C0B210BCC9
:1072100070477CB504000D00002600200021CDE958
:10722000000141F20230205AC00420D5608A0228B1
:107230001DDB6A46E18814F14000FFF7A7FC53EC20
:10724000102B00200B4901F013FE10D141F2143035
:10725000205C01F01DFC02000B00DDE9000101F0E3
:10726000FFFB04D801200600012085F898003000BB
:10727000C0B276BD0000F03F00000000000000003A
:107280000080D64038B504000D00B5F89200A5F88E
:107290009200002085F8940029002000FFF7DAFC16
:1072A00085F8940095F89400002805D0B5F8920070
:1072B00050F00200A5F8920029002000FFF726FEFA
:1072C00029002000FFF7BCFE31BD38B504000D00D9
:1072D000B5F89200A5F89200002085F894002900E6
:1072E0002000FFF7B7FC85F8940095F8940000287B
:1072F00006D0B5F8920050F00200A5F892003AE0EE
:1073000041F23C30205801F0C3FB41EC100B290046
:107310002000FFF70AFB012809D1042085F894001A
:10732000B5F8920050F00200A5F8920023E0290081
:107330002000FFF758FF012809D1022085F89400AA
:10734000B5F8920050F00200A5F8920013E0290071
:107350002000FFF75EFF012809D1032085F8940083
:10736000B5F8920050F00200A5F8920003E0290061
:107370002000FFF7ADFE29002000FFF7C7FD290020
:107380002000FFF75DFE95F89200800703D5608925
:10739000401C608101E00020608131BD38B50400EF
:1073A0000D0094F83B00012806D1B5F8920050F08A
:1073B0000100A5F892000CE094F83A00012804D1ED
:1073C00029002000FFF781FF03E029002000FFF7DC
:1073D00059FF31BD7FB504000D000026002D01D0FE
:1073E000002C02D105200600A8E0E88AA98A88427C
:1073F00002D106200600A1E068892989884202D1CD
:10740000062006009AE0E88B002802D1062006003C
:1074100094E0288D698D884202D1062006008DE017
:10742000286902F081F841F27030204480ED000BB1
:10743000E86802F079F841F26830204480ED000BF2
:107440006946B5F9160000B2FEF7DAFE02A9B5F9F1
:10745000140000B2FEF7D4FE14F59C509DED000B15
:1074600080ED000BDDE90201DDE9002301F082FA85
:107470000022DFF80C3D01F0D7FB41F278322244C4
:10748000C2E90001686802F04FF841F25030204430
:1074900080ED000B286802F047F841F248302044A4
:1074A00080ED000B6946B5F90A0000B2FEF7A8FEB0
:1074B00002A9B5F9080000B2FEF7A2FE14F59B5030
:1074C0009DED000B80ED000BDDE90201DDE90023FD
:1074D00001F050FA0022DFF8A83C01F0A5FB41F2D0
:1074E00058322244C2E90001A86902F01DF841F2B5
:1074F0008830204480ED000BE88B41F294316050DD
:10750000288E41F2B8316050686A02F00DF814F527
:107510009D5080ED000B288D41F2A8316050688DA0
:1075200041F2AC316050E86A01F0FEFF41F2B03048
:10753000204480ED000B012084F839003000C0B2F7
:1075400004B070BD000010C00038002000001040E2
:1075500090ED000B91ED001B80ED001B81ED000B09
:1075600070472DE9F041040088460026B8F101007B
:1075700086421ADA3700701C050045450DDA04EB27
:10758000C500D0E9000104EBC702D2E9002301F0F5
:107590007FFC00D22F006D1CEFE704EBC60104EB6B
:1075A000C700FFF7D5FF761CE0E7BDE8F081F8B52E
:1075B00006000D000024002741F29430305829883D
:1075C000884210D2DFF8BC0BD0E900230020DFF89E
:1075D000B81B01F0B5F8D5E90A2301F059FC01D236
:1075E000012700E000273800C0B2002815D1DFF8DD
:1075F000940BD0E900230020DFF8841C01F0A0F8F0
:1076000002000B00D5E90A0101F042FC05D3287AFB
:1076100041F21231715C884201D301200400200044
:10762000C0B2F2BD2DE9F0478EB080468946140005
:107630004D46ADB20026200080B2082801DB0720AD
:1076400004003000210080B289B2884214D2A02008
:1076500000FB05F0404490ED100B6846310089B204
:1076600000EBC10080ED000B761C0121280080B2E8
:10767000FEF732FE0500E4E7210089B26846FFF715
:1076800070FF200080B2022190FBF1F7EC46380039
:1076900080B20CEBC00090ED000B200080B2022104
:1076A00090FBF1F201FB1200002819D1200080B2FA
:1076B000401E022190FBF1F0824651EC100B0200BB
:1076C0000B00504680B20CEBC000D0E9000101F085
:1076D000EDF900225FF0804301F0A6FA41EC100BB7
:1076E0000EB0BDE8F08700002DE9F0412DED048BD0
:1076F00004000D0016009FEDA98B9FEDAA9B0120B1
:1077000001273000390080B289B2884231D351EC70
:10771000180B0022DFF8DC3B01F0AAFB29D139006D
:1077200089B2280080B2FEF7D7FD5FF0A00880B2D2
:1077300008FB00F0204490ED1A0BB0EE409AF0EEFA
:10774000609A390089B2280080B2FEF7C5FD80B288
:1077500008FB00F804EB080010F140012000FFF7DF
:1077600026FF002803D1B0EE498AF0EE698A7F1C1B
:10777000C7E753EC182B0020DFF8781B01F078FBEB
:107780000BD1290089B2A020414304EB010090ED08
:107790001A0BB0EE408AF0EE608AB0EE480AF0EEC6
:1077A000680ABDEC048BBDE8F08100000000594080
:1077B000F8B52DED048B0500B0EE408AF0EE608A3E
:1077C000B0EE419AF0EE619A0E00002731002800D9
:1077D00000B2FEF715FD04002000C0B200280BD156
:1077E000D6E9000153EC182B01F0C4F853EC192B27
:1077F00001F01AFAC6E900012000C0B2BDEC048B0A
:10780000F2BD70B52DED028B04000D00A0262800FE
:1078100080B27043204490ED1A8B41F2B83020586A
:10782000290089B271432144B1F84010884217D22F
:10783000608A062814DB280080B27043204410F1CF
:1078400040012000FFF7B3FE012809D105222900DD
:1078500089B22000FFF748FFB0EE408AF0EE608A60
:10786000280080B206FB00F604EB060080ED1C8BBE
:10787000BDEC028B70BD00002DE9F84384B004001C
:107880000D0016005FF000089FED460B8DED020B1A
:107890008DED000B2000C0B2012832D102A940F6C4
:1078A0000700FEF7ADFC0700280080B201F0F0F8F9
:1078B000DFF8C42BDFF8C43B00F042FF41EC110BB2
:1078C0009FED9D0B01F003FF53EC102BDFF8B00B85
:1078D000DFF8B01B00F034FF0022DFF8AC3B01F012
:1078E000E5F841EC100BFEF7B1FC6946894651EC16
:1078F000100B01F013F8494600B2FEF781FC8146F7
:1079000031E002A940F60500FEF77AFC07002800E6
:1079100080B201F0BDF8DFF8742BDFF8743B00F0A3
:107920000FFF41EC110B9FED840B01F0D0FE53ECE7
:10793000102BDFF8600BDFF8601B00F001FF002266
:10794000DFF8443B01F0B2F841EC100BFEF77EFC8F
:107950006946894651EC100B00F0E0FF494600B241
:10796000FEF74EFC8146DDE90023DDE9020101F06E
:107970009DF802000B00D6E9000100F0FBFFC6E90C
:1079800000014846C0B205B0BDE8F0830080564013
:10799000000034400000444000407F4000000000F0
:1079A00000C092400000000000000000A86C04002D
:1079B0002DE9F0412DED0A8B04000D001600B0EE0C
:1079C00040BAF0EE60BAB0EE41CAF0EE61CAB0EE75
:1079D000428AF0EE628A5FF0000816F1180141F267
:1079E0007830204490ED001B14F59C5090ED000B76
:1079F000F08880B2FFF7DCFE07003800C0B2002834
:107A000040F0948016F1100141F25830204490ED7E
:107A1000001B14F59B5090ED000B708880B2FFF7AF
:107A2000C7FE07003800C0B2002840F07F8096ED06
:107A3000060B86ED0A0B96ED040B86ED080B41F262
:107A4000023814F80800400711D516F128023188D1
:107A50000020FFF711FF07003800C0B2002806D150
:107A600016F1200231880120FFF706FF07003800D9
:107A7000C0B200285AD196ED0A0B86ED0C0B96ED9C
:107A8000080B86ED0E0B14F80800800708D52900B6
:107A900089B22000FFF7B5FE96ED080B86ED0E0BC0
:107AA000D6E90C0141F268322244D2E9002300F009
:107AB00047FE41F270322244D2E9002300F0F6FF83
:107AC00041EC190BD6E90E0141F248322244D2E9C9
:107AD000002300F035FE41F250322244D2E9002367
:107AE00000F0E4FF41EC1A0B53EC1A2B51EC1B0B8A
:107AF00000F026FE53EC1C2B00F022FE53EC192B59
:107B000000F038FF53EC182B00F0D0FFC6E910014D
:107B1000D6E910010022002301F0BAF902D29FED4C
:107B2000CD0B01E096ED100B86ED100B3800C0B2C6
:107B3000BDEC0A8BBDE8F0815E57148B0ABF05408F
:107B40002DE9F84F04008B4615005FF000095FF047
:107B500000080221584680B2FEF7BEFB8246012192
:107B6000584680B2FEF7B8FB060000200021C5E9A8
:107B70001401A0271AFB07F02044D0E912230020AB
:107B8000002101F075F911D01AFB07F02044D0E96B
:107B900012235FF03330DFF8481A00F0D1FDD5E949
:107BA000142300F083FFC5E9140110E01AFB07F06D
:107BB0002044D0E910235FF03330DFF8241A00F0BE
:107BC000BFFDD5E9142300F071FFC5E9140116FBD0
:107BD00007F02044D0E912230020002101F048F9E9
:107BE00011D016FB07F02044D0E912235FF0663075
:107BF000DFF8F01900F0A4FDD5E9142300F056FFDA
:107C0000C5E9140110E016FB07F02044D0E9102369
:107C10005FF06630DFF8CC1900F092FDD5E914234F
:107C200000F044FFC5E91401D5E912230020DFF874
:107C3000B81900F085FDD5E9142300F037FFC5E938
:107C40001401BDE8F18F70B52DED048B04000D001B
:107C50000026E089401CE08141F20230205CC00730
:107C600056D5E089022827DBE18814F14000FEF7B1
:107C70008BFCB0EE409AF0EE609AB0EE490AF0EE5E
:107C8000690AFEF70BFBB0EE408AF0EE608A51EC19
:107C9000180B0122DFF8543900F0E2FE06D8A08963
:107CA000072809DAA089401CA08105E0A0890428E2
:107CB00002DBA089401EA081E089072812DBA2898F
:107CC000E18814F14000FFF7ADFC85ED120B2A00AE
:107CD000E18814F14000FFF733FF95ED140B85EDBB
:107CE000160B19E0E089A18988420CD3A289E188AA
:107CF00014F14000FFF796FC85ED120B95ED120B89
:107D000085ED160B08E095ED100B85ED160B03E0E5
:107D100095ED100B85ED160B3000C0B2BDEC048B59
:107D200070BD000064510020F8B52DED0C8B0400EF
:107D30000D000121E088FEF7CFFA06009FED458B8C
:107D4000B0EE48CAF0EE68CAB0EE48DAF0EE68DA93
:107D5000B0EE489AF0EE689AD5E91601A02216FB1B
:107D600002F22244D2E9262300F004FE41EC1A0B71
:107D7000B0EE4A0AF0EE6A0AFEF790FAB0EE40BAA8
:107D8000F0EE60BA41F20237E05D000758D528886E
:107D900041F2B8316158884252D3608A02284FDBE1
:107DA00041F23030205A00F073FE53EC1B2B01F0EF
:107DB0006FF812D253EC1A2B0020DFF8341800F0C1
:107DC000BFFC41EC190BD4E9082351EC190B00F06E
:107DD0006DFEC4E908010020E062E05DC00605D543
:107DE00041F20630205AE16A88420ADAD4E90801F1
:107DF00041F208322244D2E9002300F0A1FCC4E998
:107E0000080194ED080B85ED220BD5E91623D4E982
:107E1000080100F04BFEC5E9180194ED080BFEF7D0
:107E20003DFA51EC100BDFF86828DFF8683801F0F4
:107E30002FF801D284ED088BE06A401CE06203E079
:107E400095ED160B85ED180BBDEC0C8BF1BD00000C
:107E500000001C400000000000000000F8B58CB0DD
:107E600004000D0000279FED580B8DED0A0B8DEDE2
:107E7000080B00200021CDE9060141F29430205882
:107E80002988884202D2012084F83A000AA8039087
:107E90002888029041F2883004EB000184B06846E3
:107EA000182201F01DF80FBCFEF7C6FA06003000DC
:107EB000C0B2002823D106A8059008A80490A069A4
:107EC00080B203902888029014F59D5184B06846D2
:107ED000182201F005F80FBCFEF7F6FA0600300094
:107EE000C0B200280BD19DED062B9DED081B9DED2A
:107EF0000A0B2A00E1882000FFF75AFD0600300037
:107F0000C0B200283BD129002000FFF79CFE0700EB
:107F100029002000FFF708FF95ED180B85ED1A0BDF
:107F200029002000FEF75AFD060041F228302044C7
:107F300090ED001B14F5995090ED000B29002000E6
:107F4000FEF7A0FD3000C0B2002818D129002000A3
:107F5000FFF724FA288841F2B831615888420BD3E0
:107F60002B0041F2343004EB000214F59E5114F55D
:107F70009850FEF7C1FE02E0002085F89100300025
:107F8000C0B2002804D195F8920010F0030F0BD076
:107F9000002020810020E081208A401C20820320D4
:107FA000A0810120A07502E02089401C208195F865
:107FB0009400002803D095F8940084F83C00300029
:107FC000C0B20DB0F0BD0000000000000000F03FA6
:107FD0002DE9F04104000D0016001F005FF00008BD
:107FE00041F2943020582988884202D2012084F836
:107FF0003A003000C0B200285AD195ED1C0B85ED37
:10800000160B95ED1C0B85ED100B29002000FEF7DB
:10801000E5FC8046380080B2002801D0A5F89270B7
:1080200095F8940000280BD041F23430205829886C
:10803000884205D2B5F8920050F00200A5F89200EF
:1080400029002000FEF762FF29002000FEF7F8FF5C
:10805000288841F2B831615888421DD395F89200C2
:1080600010F0030F14D12B0041F2343004EB000266
:1080700014F59E5114F59850FEF73EFE380080B27C
:1080800000280CD0B5F892003843A5F8920006E01D
:10809000002085F8910002E0002085F8910095F815
:1080A000920010F0030F10D0002085F890000CE033
:1080B00094F83B00002808D1012084F83B00B5F873
:1080C000920050F00100A5F892004046C0B200288E
:1080D00004D195F8920010F0030F0BD000202081FE
:1080E0000020E081208A401C20820320A081012002
:1080F000A07502E02089401C208195F8940000289A
:1081000003D095F8940084F83C004046C0B2BDE826
:10811000F0812DE9F041002441F2F8350026DFF826
:108120007875B84632002900404601F0D9FA41F28C
:1081300048303844FEF7E6F841F234303844FEF770
:108140000AF917F59E50FEF714F917F59850FEF747
:108150002FF941F230303844FEF76BF90320B88133
:1081600000200021C7E9080100203863002041F207
:10817000F03178502000C0B2BDE8F081000000006E
:1081800000206C40A06C040000003E402DE9FF4F31
:1081900083B0109D119E129C5FF00009DFF8F87407
:1081A0000398386004994FF4B4604143B96105996C
:1081B0003800FFF70FF980464046C0B200285AD178
:1081C0005FF03009019517F59E5A4A4601995046CD
:1081D00000F076FE5FF0140A0698009041F2343009
:1081E00007EB000B52460099584600F069FE17F560
:1081F00098500470308841F202317852708841F210
:1082000004317852B08841F206317852B06801F0FA
:108210008BF941F20830384480ED000B307B41F29D
:1082200012317854707B41F213317854B07B41F2B3
:1082300014317854308A41F216317852B07C41F2D0
:1082400018317854F07C41F219317854B06901F05A
:108250006BF917F5995080ED000BF06901F064F9A6
:1082600041F22830384480ED000B307D012802D1E6
:10827000012087F83B004046C0B207B0BDE8F08F50
:10828000000020C0F8B5040030252600DFF80C748B
:108290002A003100380000F013FEF1BD2DE9F0474F
:1082A0009EB0040000256846782101F04DFA78263A
:1082B000DFF8E49341F2483009EB0007B846EA469C
:1082C00032004146504600F0FBFD21004846FFF7D2
:1082D00081F881464846C0B2002806D078256E460F
:1082E0002A003100380000F0EBFD4846C0B21EB055
:1082F000BDE8F08700C092402DE9F64F85B005003B
:108300008A461E00119F00208DF80200A7F804A0E5
:10831000FE80280080B2002800F09180280080B202
:10832000B0F5E14F80F28B80DFF86C83B8F8040081
:10833000290089B2884280F07F80A020049000202C
:1083400003905FF0A009B8F8060009FB00F0404474
:1083500010F1400B039A0499584601F0C1F910201E
:10836000029000200190BB46019A0299584601F004
:10837000B7F9B8F8060009FB00F908EB090040302E
:10838000040025806680BDF840002071A4F806A096
:10839000BDF818002072B8F81200401CA8F81200AE
:1083A00021004046FFF75AFD814694ED1C0BFDF776
:1083B0004DFF51EC100B00F0B1FAADF800003D801C
:1083C000BDF90000002801D5002002E0BDF9000041
:1083D00080B2388194F89000B87294F89100F872E5
:1083E000B4F89200F88194F89400787387F80C90B0
:1083F00094F89600012802D10220F88105E0B87BAC
:1084000010F0030F01D1A8F81450B8F80600401C72
:108410001E2190FBF1F201FB1200A8F80600A8F85B
:108420000450B87B10F0030F0BD0002038810020DF
:10843000B8720020F87204E05FF0020901E05FF01A
:1084400003094846C0B2002811D03D800020388181
:108450000020B8720020F8720120F88100207873A3
:1084600087F80C900120DFF8301281F83B00484675
:10847000C0B207B0BDE8F08FFCA9F1D24D6280BF59
:10848000068195438B9456400000A0407B14AE4774
:10849000E17A84BF25068195431B50402DE9F84FB2
:1084A000050000260020A8722888002800F080809F
:1084B0002888B0F5E14F7BDADFF8DC71B8882988CD
:1084C000884273D25FF0A0085FF000095FF0A00A55
:1084D000F8880AFB00F0384410F1400B4A46414648
:1084E000584601F0FDF8F8880AFB00FA07EB0A008D
:1084F0004030040028882080B5F906006080B5F976
:108500000400E080288900F0C3FAC4E91C01E87A7D
:10851000C0B2000984F89400788A401C7882788A76
:10852000012809D12088022806DBE87A50F0800073
:10853000E872082084F89400AB89EA7A12F00F02FE
:1085400021003800FFF744FD94F89610012904D16A
:10855000A98951F00201A98106E094F8921011F066
:10856000030F01D12988B98294F8921011F00C0FF1
:1085700007D000212981002184F89010002184F87F
:10858000911094F8901094F8912051EA0211A97278
:10859000B4F89210A981F988491C1E2291FBF2F3CC
:1085A00002FB1311F9802988B98002E0022000E063
:1085B00003200100C9B200290ED00021A972A989A7
:1085C00051F00101A981DFF8D02092F83B10002979
:1085D00002D1012182F83B10C0B2BDE8F28F000049
:1085E0003333C33F6666D63F0000E03F00001440CF
:1085F0000000F0BF2DE9F8432DED048B84B08046D8
:108600000C0015001E005FF000092000290080B258
:1086100089B2884201D1062733E06946200000B2C2
:10862000FDF7EEFD07003800C0B2002829D102A9ED
:10863000280000B2FDF7E4FD07003800C0B20028B2
:108640001FD19DED000BB0EE408AF0EE608ADDE9AF
:108650000201DDE9002300F08DF90022104B00F04B
:10866000E3FA41EC190B3100B0EE491AF0EE691A49
:10867000B0EE480AF0EE680A404680B2FFF798F87C
:1086800007003800C0B204B0BDEC048BBDE8F28333
:108690009A9999999999B93F703D002030510020DD
:1086A00000206C40C11768B14840401AB0FA80F20F
:1086B0009040D21CC907C2F5846241EA025202EB23
:1086C000D02140057047F0B4024610689568131831
:1086D000506803EB5004C0071DD54D441BE013F850
:1086E000017B05F8017B491EF9D1A0B1B60813F84A
:1086F000011B06F00306032E08BF13F8016B01EB04
:1087000006214942801C294405D011F8016B05F867
:10871000016B401EF9D1A3420ED013F8016B16F085
:10872000030104BF13F8011BC91C30090F28DAD15B
:1087300013F8010B0F30D6E7F0BC02F10C007047C4
:10874000B0B581EA030C0CF0004C40F2FF7515EA5D
:1087500011541DBF15EA1357AC42AF4239E0E4197A
:1087600023EA455343F48013C90241F0004141EA32
:10877000505EC7021100A7FB020200284FF0000064
:10878000EEFB01204FF00001E3FB072118BF42F090
:108790000102401800214941E3FB0E01A4F5806469
:1087A0000F0302D252004041494154F101046CDDF3
:1087B000470872F1004250F1000051EB0451A1F55D
:1087C00080115CBF41EA0C01B0BD4CEA05510020AC
:1087D000B0BD05EA1357AC4214BFAF4241E050EAC6
:1087E000410E1CBF52EA430E02E061460020B0BDBC
:1087F00024423C441BD15FEA070EF6D0090302BFB6
:1088000001460020AEF1140EB1FA81F7AEEB070479
:1088100001FA07FE0C37C7F1200100FA07F7C8403C
:108820004EEA000E23EA455343F48013A2E733F0E7
:108830000043B3FA83F704BFB2FA82FE77440B3FDA
:10884000E41BB7F1200E2FBF02FA0EF3BB40C7F1B5
:10885000200E22FA0EFE38BF43EA0E03BA40641C13
:1088600082E750EA410E14BF52EA430E6FF0000156
:108870004FF4001717EB430F8ABF194617EB410F50
:10888000B5E74CEA05510020B0BDD4F10104B4F1C4
:1088900020070FDAC4F12007520828BF42F0010276
:1088A00010FA07F501FA07F7E1BF2A43E040384321
:1088B000E1400FE0352C98DCC7F1200452EA400279
:1088C00020FA07F218BF42F0010231FA07F0A14086
:1088D0000A43002172F1004250F1000051EB0C01FB
:1088E000B0BD30B4002513E050F8042BD30744BFCB
:1088F000A9F101039A18091F042942F8045BFAD26E
:1089000013468C0744BF15809B1CC90748BF1D70C8
:1089100050F8041B0029E7D130BC7047C1F30A535B
:1089200040F2FE329B1A14DDD3F120034FEAE172CC
:1089300008DDC90241EA505141F00040D84080189A
:108940005040704703F2E13010B1D24382F0004052
:10895000704700207047B1F5807F02D34FF0FF30A1
:1089600070470170012070470078401E8041C0436D
:10897000C00F704770B44FF0004591EA030F40F10B
:108980009D806B40841A71EB030603D2001BB1413A
:10899000121973414FF4001C1CEB410F34BF7CEBE8
:1089A000430442E00C0DA4EB1356352E4FDC45EA90
:1089B000C323DB0A45EAC121C912B6F120050DDD4A
:1089C00063FA05F6EB4086EA0305124218BF45F04C
:1089D0000105C01851F100010CD213E062FA06F54E
:1089E000F2405540F3415A40B340F3405A4080189A
:1089F000594107D349085FEA30005FEA350528BFCF
:108A000045F0010501F58011420875F1004250F171
:108A1000000041EB04514E0016F5001F70BC38BF3A
:108A200070470020090D090570471CEB410F10D25B
:108A300052EA43060BD0BCEB410F05D80C0DAB43FB
:108A4000661E342EB6DD02E0AB438018594170BC7F
:108A5000704770BC70470268531C03601170704708
:108A60004FF4001C1CEB410F94BF1CEB430F09E0BB
:108A700041EA030C50EA4C0C52EA0C0C03D28B4234
:108A800008BF8242704714BF994290427047050068
:108A9000014648B1B0FA80F18840C91CC1F5846133
:108AA000090501EBD02140057047B80B70B44FF0B9
:108AB000004591EA030F7FF565AF6B40841A71EBB7
:108AC000030604D26E40001BB141121973414FF4EA
:108AD000001C1CEB410F34BF7CEB430683E00C0D04
:108AE000A4EB1356362E00F37C80012E45EAC323F7
:108AF00041DC43EA525312BFD20292025B082405C2
:108B000045EAC12141EA5051D2EBC020994125D418
:108B100007D1B0FA80F610FA06F162D000202036B4
:108B200008E0B1FA81F6B140C6F1200220FA02F263
:108B30001143B0404FEAF474B4EB465434F00106EC
:108B40004FEA74040AD8D6F50016760D04F00044F6
:108B5000F04061FA06F25040F1404840C00A40EA55
:108B6000415021F0004128BF5FEA500550F100005C
:108B700044EBD12135E0DB0A45EAC121C90AB6F14F
:108B800020050EDD42EA0242120CC5F1200603FA6E
:108B900006F6EB4042EA06056D42984161F100019C
:108BA0000DE062FA06F5F240554063FA06FC82EAEF
:108BB0000C02F3405A406D42904161EB030111F405
:108BC000801F05D1641E620502D06D0040414941FD
:108BD00021F48011430875F1004350F1000041EB8E
:108BE000045170BC70471CEB410F15D223F00043B9
:108BF00052EA43060BD04FEA4C0CBCEB410F04D8B1
:108C00000C0D661E342EB7DDEBE7801A994150EA51
:108C1000410608BF0021E4E708BF1CEB430F28BF53
:108C20006FF00001DDE70000F0B540F2FF7581EA6A
:108C3000030C0CF0004C15EA11541DBF15EA135734
:108C4000AC42AF42E5E0BC41C1F31301C3F31303EF
:108C5000801A994143F4801304D2641E40004941B4
:108C600080185941C90241EA5051B1FBF3F603FBA8
:108C70001611A2FB0675D7EBC020A94102D2761EC1
:108C800080185941C90241EA5051B1FBF3FE03FB80
:108C90001E11A2FB0E75D7EBC020A94103D2AEF185
:108CA000010E80185941890241EA9051760546EA41
:108CB0008E2EB1FBF3F603FB1611A2FB0675D7EB64
:108CC0008020A94102D2761E80185941C90241EA8A
:108CD00050514EEA060EB1FBF3F603FB1611A2FB50
:108CE0000675D7EBC020A94102D2761E80185941E3
:108CF000C90241EA5051B1FBF3F703FB1711A2FB84
:108D00000735D3EBC020A94167F100070CBF004233
:108D100047F0010766F3D5274FEA1E31B80814F56E
:108D2000806412DDBD0775F1004250EB0E5051EB2F
:108D3000045111F5801F5CBF41EA0C01F0BD4CF0FD
:108D40007F6141F0E0410020F0BDBD076D0840EAC1
:108D50000E5041F48011D4F10104B4F120060ADA76
:108D6000C4F120060200E04001FA06F3E140184396
:108D7000B24015430EE0342C13DCC6F1200445EA62
:108D800040056D0820FA06F2154321FA06F0A140CD
:108D90000D43002175F1004250F1000051EB0C0130
:108DA000F0BD00205FEA0C01F0BDCFB992185B4125
:108DB000B3FA83F704BFB2FA82F6BF190B3FB7F1DB
:108DC00020062FBF02FA06F3BB40C7F1200622FAA5
:108DD00006F638BF3343BA401CB1E419641E33E7CA
:108DE0007F4231F00041B1FA81F404BFB0FA80F65D
:108DF000A4190B3CB4F120062FBF00FA06F1A140E4
:108E0000C4F1200620FA06F638BF3143A0403C1BCF
:108E10001AE7AC421ABF05EA1357AF4212E050EA14
:108E200041061CBF52EA4306BFE750EA41073046FD
:108E300061461CBF41EA0551F0BD52EA430C08BF30
:108E4000C143F0BD00204FF4001616EB410F98BF50
:108E500016EB430F08BF16EB410F24BFC14305E0DB
:108E600016EB430F0CBF61464CEA0551F0BD000004
:108E700090420CD141EA030C50EA4C0C07D09942C5
:108E800005D14FF4001C1CEB410F38BF89427047DD
:108E90004FF4001C1CEB410F94BF1CEB430F09E087
:108EA00041EA030C50EA4C0C52EA0C0C03D29942F2
:108EB00008BF9042704714BF8B4282427047000047
:108EC00062B38B0708D0521E11F8013B00F8013B3A
:108ED00000F024808B07F6D1830740F0208000BF8C
:108EE000103A07D330B4B1E83810103AA0E838107F
:108EF000F9D230BC530724BFB1E80810A0E808102D
:108F000044BF51F8043B40F8043BD20724BF31F87A
:108F1000022B20F8022B44BF0B7803707047121FFE
:108F200017D35B0009D151F8043B20F8023B1B0C1E
:108F3000121F20F8023BF6D20BE051F8043B00F878
:108F4000013B1B0A20F8023B1B0C121F00F8013BDF
:108F5000F3D238BF121D521E24BF11F8013B00F896
:108F6000013BF8D8704710B504460020C046216880
:108F7000BDE8104041184FF0FF32002000F0E8BB80
:108F80000100C9B20A2902DA3030C0B201E037303C
:108F9000C0B270470100C9B2302906DB0100C9B276
:108FA0003A2902DAC0B2303801E0C0B2373870472F
:108FB00038B505000C00002C06D0611E2800FFF714
:108FC000F7FF00FB05F000E0012032BD38B50500D9
:108FD0000C00002C06D0611E2800FFF7F7FF00FBF5
:108FE00005F000E0012032BD10B40022B2EB510FB9
:108FF0000BD2835C8C1A044414F8014C84548C1AF0
:10900000044404F8013C521CF0E710BC704710B453
:1090100011F00701002908D002788A400378D1F1C5
:109020000704FF3C23411A43027010BC704710B480
:1090300011F00701002908D002780A410378D1F124
:109040000704FF3CA3401A43027010BC7047F0B401
:1090500001251E24B0FBF4F604FB1606102E02D3E5
:109060005FF0FF342500DFF84C7691F800C0BC5D5E
:1090700094EA0C0C81F800C092F800C0AC193C5D79
:1090800094EA0C0C82F800C093F800C016EB45047B
:109090003C5D94EA0C0C83F800C0F0BC704710B43F
:1090A0001E22B0FBF2F302FB13030C78DFF8042658
:1090B000D25C54400C7010BC70472DE9F04705009D
:1090C0000E0017009846089C0022B8EB0701032009
:1090D000B1FBF0FA00FB1A1AB946504680B2B8EB61
:1090E000000081455FD22000C0B2002824D119EBD6
:1090F00005010C20B1FBF0F200FB121106EB090098
:10910000FFF795FF19EB0501491C0C20B1FBF0F2AC
:1091100000FB121106EB0900401CFFF788FF19EB5A
:109120000501891C0C20B1FBF0F200FB121106EBCB
:109130000900801CFFF77BFF06EB0900831C06EB90
:109140000900421C06EB09012800FFF780FF200000
:10915000C0B2002824D019EB05010C20B1FBF0F2BD
:1091600000FB121106EB0900FFF751FF19EB050197
:10917000491C0C20B1FBF0F200FB121106EB0900B8
:10918000401CFFF744FF19EB0501891C0C20B1FBC3
:10919000F0F200FB121106EB0900801CFFF737FF0D
:1091A00019F1030999E7C14525D22000C0B2002872
:1091B0000AD119EB05010C20B1FBF0F200FB1211F2
:1091C00006EB0900FFF733FF06EB09012800FFF764
:1091D00066FF2000C0B200280AD019EB05010C2060
:1091E000B1FBF0F200FB121106EB0900FFF70FFFD5
:1091F00019F10109D7E7BDE8F087F0B505000021B6
:109200000026A85D00282FD00020040000200200C6
:109210002000C0B2002825D1202A23DA0020030034
:109220002000C0B200281BD1072B19DA0C20DFF870
:109230005C7415F806C000FB02FEBE449E449EF816
:1092400005E0F4450AD15FF0010C6446DFF868C41C
:1092500000FB02F038585CF8200041405B1CDFE75F
:10926000521CD5E7761CCCE70800F0BD2DE9F14F84
:109270000A9C002008600020106000201860002078
:1092800020605FF00008009810F80800002860D007
:1092900000208646002006007046C0B2002855D146
:1092A000202E53DA002007007046C0B200284BD1B0
:1092B000072F49DA0C20DFF8D493DDF800A01AF864
:1092C00008A000FB06FBCB44BB449BF805B0DA4585
:1092D00038D15FF0010AD64600FB06F059F80000CD
:1092E0000500DFF8D493D1F800A059F8250090EAE2
:1092F0000A0AC1F800A001208446112D02D35FF0B4
:10930000FF308446D2F800A015EB4C0059F820003D
:1093100090EA0A0AC2F800A0D3F800A0032000FBDC
:109320000C5059F8200090EA0A0AC3F800A0D4F8BB
:1093300000A0052000FB0C5059F8200090EA0A0A12
:10934000C4F800A07F1CAFE7761CA5E718F1010860
:1093500099E7BDE8F18FF0B420260024B04204D391
:10936000062C02DA7601641CF8E7062C02D15FF0C5
:10937000804501E0760935000026B44212DBB0FBDF
:10938000F5F73A00DFF804735FF00C0C0CFB02FCFD
:1093900067443F798F5505FB02F73B00C01A6D0902
:1093A000761CEAE700278F55F0BC704770B50500C2
:1093B0000C000026002C0DD00920B4FBF0F100FBBE
:1093C0001140C0B2FFF7DCFDA855761C0920B4FBA4
:1093D000F0F4EFE70020A85531002800FFF704FE65
:1093E00070BD2DE9F04704000D0001260021002783
:1093F0005FF0000800202860404610F10108205C62
:109400000028F9D1B8F10108B8F10109B9F1000F4C
:109410001ED43000C0B200281AD014F80900FFF79B
:10942000B9FD092802DB002006000EE014F809004F
:10943000FFF7B0FD824639000920FFF7B9FD296822
:1094400000FB0A1AC5F800A07F1CB9F10109DDE78D
:109450003000C0B2BDE8F0872DE9FE4F0500684638
:1094600000210022002380E80E00002400212000BB
:10947000441C285C0028FAD1641E0026D4F109009F
:10948000864204D2302069468855761CF6E72700CC
:10949000A846684600EB06093A0041464846FFF7F1
:1094A0000FFD5FF00A09EA46AB464A465146584668
:1094B000FFF706FDBDE8F78F2DE9F84185B0040000
:1094C0000D0016001F00DDF8308001A92000FFF715
:1094D00042FFCDF800803B003200290001A8FFF7D1
:1094E000C5FE06B0BDE8F08110B403004FF6FF7072
:1094F00000248C4214D2020092B2120AD2B252EA72
:1095000000201A5D50400200D2B21209D2B250407F
:1095100090EA0030420112F4FF525040641CE8E728
:1095200080B210BC7047000010B52DED048B040014
:109530009FED578B9FED589B594801688C420BD388
:109540000068241A002C01D1564804009FED561BD8
:10955000B0EE419AF0EE619A002C08D02000FFF79F
:1095600097FA0022554BFFF75FFB41EC180B53ECC9
:10957000182B51EC190BFFF7E3F841EC100BBDEC85
:10958000048B10BD38B52DED028BB0EE408AF0EEA5
:10959000608A0024002551EC180B00220023FFF7FD
:1095A00077FC0AD253EC182B00204149FFF7C8F88A
:1095B00041EC180B3A480068050053EC182B0020CA
:1095C0003E49FFF7BDF841EC180B51EC180B00F0C9
:1095D00041F92818BDEC028B32BD2DE9F04704009B
:1095E0000D000126002100275FF000080020286000
:1095F000404610F10108205C0028F9D1B8F10108BB
:10960000B8F10109B9F1000F1ED43000C0B2002832
:109610001AD014F80900FFF7BDFC0A2802DB00206D
:1096200006000EE014F80900FFF7B4FC824639008A
:109630000A20FFF7CBFC296800FB0A1AC5F800A036
:109640007F1CB9F10109DDE73000C0B2BDE8F08749
:10965000F8B505000C0000260027002C0ED00A20CB
:10966000B4FBF0F100FB1140C0B2FFF789FCA85534
:10967000761C0A20B4FBF0F47F1CEEE70020A8550E
:1096800031002800FFF7B0FC3800F2BDD4380020CC
:109690000000000000000000000000000000F03F9B
:1096A000446D0400A0860100000000000000F0BF2F
:1096B0000000F0BF543A0020743A0020006AF840DD
:1096C00041EC100B01BD80B500F0D8F8F8E780B58B
:1096D00053EC112B51EC100B00F054FCF0E7010699
:1096E00062F30F2262F31F42401810F0030308D008
:1096F000C91A1FD3DB0748BF00F8012D28BF20F887
:10970000022D130030B414461546103928BF20E945
:109710003C00FAD8490728BF20E90C0048BF40F8B0
:10972000042D890028BF20F8022D48BF00F8012D24
:1097300030BC7047C91818BF00F8012DCB0728BFEF
:1097400000F8012D70476027002200F025BCFEE7DD
:109750002DE9F84F07003048DFF8C0A008BF304FB0
:1097600000EB010B3A620BF5616000900FF2B40858
:1097700040F26D192BE040460C2100F1180232F93D
:10978000023D491E9E42FADB0AFB15BB396130F9E6
:1097900011004FF46161361ABBFBF1F0B86001FBB8
:1097A00010BB3C20BBFBF0F07860761CC0EB0011D6
:1097B000FE60ABEB81003860386A002828D5384657
:1097C0004FF0FF300028386222DDDDF800B0BBFB2F
:1097D000FAF5681C072190FBF1F1C1EBC101401AB9
:1097E000B86195FBF9F400E0641E0021204600F00A
:1097F000EDFB09FB04008542F6DB2E1A14F0030F83
:109800007C61FE6101D1002CB5D100BF0BA0B3E794
:109810003846BDE8F28F0000807EAA8380510100A7
:109820003496002000001F003C005B007900980087
:10983000B600D500F400120131014F0100001F00F5
:109840003B005A0078009700B500D400F3001101E6
:1098500030014E01400D491840EA81200CD2490DDB
:10986000A1F58061491C40F0004005DBD1F11F01EA
:1098700054BFC840C01770470020704780B5884269
:1098800004DB401ABDE80240FFF702B9081AFFF7EF
:10989000FFF881F0004104BD2DE9F84C2DED0A8B55
:1098A00082B041EC190B149C43EC182B0CB1002036
:1098B000206051EC180B20F0000631F0004708BF83
:1098C000002E14D053EC192B0020DFF82416FFF7DC
:1098D000CFFA0CD0DFF81416FFF7CAFA0FD151EC0B
:1098E000180B48004015401C09D1090307D102B0EC
:1098F0000020BDEC0A8BDFF8F815BDE8F48C51ECC4
:10990000190B48004015401C0DD051EC190B31F0DB
:10991000004108BF002806D051EC180B4800401544
:10992000401C40F0F58051EC190B48004015401CDC
:1099300005D1090318BF51EC190B40F0CF8251EC4F
:10994000180B48004015401C05D1090318BF51EC05
:10995000180B40F0C38251EC180B4800012440154D
:10996000401C61D051EC180B4B0043EAD07342000D
:10997000002B08BF002A04D1B0EE48AAF0EE68AA76
:1099800019E040F23345A5EB5352352A04DB00F0D1
:10999000000001F000410CE0202A03DD203AD14014
:1099A000914000E001D1002003E0002AC4BFD04074
:1099B000904041EC1A0B53EC182B51EC1A0BFFF7AB
:1099C00057FA18BF00244B0043EAD0734200002B23
:1099D00008BF002A04D1B0EE4A0AF0EE6A0A19E084
:1099E00040F23445A5EB5352352A04DB00F0000069
:1099F00001F000410CE0202A03DD203AD1409140E3
:109A000000E001D1002003E0002AC4BFD040904014
:109A100041EC100B44B153EC1A2B51EC100BFFF737
:109A200027FA0CBF0024012451EC190B4800401503
:109A3000401C0ED109030CD151EC190BC80F25D1D4
:109A400053EC182BDA0F0CBF9FED8C0B9FED8D0B99
:109A500042E251EC180B48004015401C28D1090384
:109A600026D153EC192B23F00041B1F5801F22F0D1
:109A700000002ED20022002908BF002800922DD01D
:109A80006A4651EC190B00F0D7FA27E051EC180B9D
:109A9000C80F06D1002C0CBF9FED780B9FED7B0B00
:109AA0001AE2002C0CBF9FED770B9FED7A0B13E2AF
:109AB000002C1ABF51EC190BC80F002053EC182BC7
:109AC000DA0F1ED100280CBF9FED6E0B9FED710BBE
:109AD00002E2DFF8204404EB1150009051EC180B27
:109AE000C80F009806D10028CCBF9FED640B9FEDF6
:109AF000650BF1E10028CCBF9FED620B9FED5F0B82
:109B0000EAE100280CBF9FED5D0B9FED600BE3E1E8
:109B100051EC180B4B0043EAD0734200002B08BFF6
:109B2000002A04D1B0EE48AAF0EE68AA19E040F28B
:109B30003345A5EB5352352A04DB00F0000001F059
:109B400000410CE0202A03DD203AD140914000E0A2
:109B500001D1002003E0002AC4BFD040904041EC76
:109B60001A0B51EC190BC80F11D053EC182B51ECF8
:109B70001A0BFFF77DF90AD0AFF3008002B04FF067
:109B8000FF30BDEC0A8B6FF00041BDE8F48C53EC64
:109B9000192B23F00041B1F5801F22F000000BD2F9
:109BA0000022002908BF0028009211D06A4651EC1B
:109BB000190B00F041FA09E0CE4E06EB115000906F
:109BC000DFF89C13CC4803401046194341EC190BB5
:109BD00051EC190BC80F36D021F0004053EC192B73
:109BE000034643EC192B51EC1A0B4B0043EAD0739C
:109BF0004200002B08BF002A04D1B0EE4A0AF0EE62
:109C00006A0A19E040F23445A5EB5352352A04DBC9
:109C100000F0000001F000410CE0202A03DD203AB2
:109C2000D140914000E001D1002003E0002AC4BFF0
:109C3000D040904041EC100B53EC1A2B51EC100B20
:109C4000FFF716F901D1002600E00126009801284F
:109C500024D151EC190BA94AA94BFFF719F91DD2D0
:109C600053EC192B00204FF08041FEF769FD0025D1
:109C70009FEDC0BB41EC190B2EE000BF00000000BF
:109C80000000F07F00000000000000000000000065
:109C90000000F0FF000000000000008053EC192BD2
:109CA00000209849FEF74CFD9FED97AB53EC1A2B23
:109CB000FEF7FCFEFEF732FEA0F120052846FEF777
:109CC000F1FC0022924BFEF73BFD53EC1A2BFEF702
:109CD000EDFE41EC1B0B6D0151EC190B53EC1B2BF2
:109CE000FEF748FE41EC1A0B53EC192B51EC1B0B01
:109CF000FEF7DCFE02460B4651EC1A0BFEF794FF12
:109D000041EC190B53EC192BFEF71AFD41EC1C0B1F
:109D100053EC1C2B7F488049FEF712FD7F4A804B95
:109D2000FEF7C4FE53EC1C2BFEF70AFD7D4A7E4B6A
:109D3000FEF7BCFE53EC1C2BFEF702FD7B4A7C4B6E
:109D4000FEF7B4FE53EC1C2BFEF7FAFC794A7A4B73
:109D5000FEF7ACFE53EC1C2BFEF7F2FC774A784B77
:109D6000FEF7A4FE53EC1C2BFEF7EAFC754A764B7B
:109D7000FEF79CFE53EC1C2BFEF7E2FC53EC1A2B77
:109D8000FEF7F8FD07468B460020594953EC1B2B84
:109D9000FEF7F0FD00224FF08043FEF7D1FC3A467B
:109DA0005B46FEF783FE53EC192BFEF7C9FC53EC20
:109DB0001A2BFEF77BFE41EC190B00984A4F7F44AB
:109DC00007F593772F44FEF76DFCD7E90023FEF7E4
:109DD0006DFE41EC1A0B53EC192B5C485C49FEF705
:109DE000AFFC53EC1A2BFEF761FE53EC182BFEF779
:109DF000A7FC0022574BFFF74BF841EC1B0B68D335
:109E00000122554BFEF72CFE59D9C80F53EC1B2BE2
:109E10001ABF002051495249FEF748FEFEF77EFD69
:109E2000054653EC192B51EC180BFEF789FC8246C2
:109E30008B46D7E90201D7E90423FEF737FE53EC3E
:109E4000182BFEF77DFC9FED47BB53EC1B2BFEF759
:109E500077FC52465B46FEF729FECDE9000153EC44
:109E60001A2B51EC180BFEF76BFC07468B46284665
:109E7000FEF718FC02460B4638465946FEF77AFDB7
:109E800053EC1B2BFEF75CFCDDE90023FEF70EFE16
:109E90000CB12560002500950022154B00F004F957
:109EA00020F0000231F0004308BF002A41EC100B03
:109EB0000FD048004015401C03D1090301D19FED8C
:109EC0002B0B4EB151EC100B81F0004141EC100B0B
:109ED00002E09FED2A0BF4E751EC100B02B0BDEC51
:109EE0000A8BBDE8F48C00BF509B01000000F0BF5E
:109EF0000000F03F02FCFFFFFFFF0F80CD3B7F66BD
:109F00009EA0E63F00005040000000000000E03F3F
:109F10000000903FF7DE29BFD8F8C23FF4B3FECC73
:109F20001A99C33F62CB68D96F46C73FC6C912DAD8
:109F3000C471CC3F4AE98A942449D23FF75F97998C
:109F40009999D93FBC5555555555E53FFE822B652E
:109F50004715F73F0000E0C00000E0400000E0BF10
:109F60000000E03FEF39FAFE422EE63F000000001D
:109F70000000F07F000000000000F03F0000000043
:109F80000000000080B541EC100B0020009051EC67
:109F9000100BFFF781FC04BD00B500BF130096460F
:109FA0009446103928BFA0E80C50FAD85FEA417CEB
:109FB00028BF0CC048BF40F8042BC90728BF20F8B1
:109FC000022B48BF00F8012B00BDFEE70246002A25
:109FD00004DD501E431000EB937005E012F1030FF7
:109FE00004DA401002EB9070801000E0002012F0C4
:109FF000030F00D112B900BF09A200E002A232F99A
:10A00000111008187047000000001F003C005B00A2
:10A0100079009800B600D500F400120131014F011B
:10A0200000001F003B005A0078009700B500D400E4
:10A03000F300110130014E0110B5144600F002F892
:10A04000226010BDC1F30A5343B14A0012F5001F4C
:10A0500028D2A3F2FE32A1EB0251704750EA410C24
:10A0600020D001F0004C31EA0C01B1FA81F204BFBA
:10A07000B0FA80F3D2180B3AB2F120032CBF00FAE9
:10A0800003F1914041EA0C013EBFC2F1200C20FADD
:10A090000CF319439040524240F2FD33D21A01EBC7
:10A0A0000351704700227047F8B52DED0A8B41EC43
:10A0B0001A0B48004015109D401C43EC182B23D070
:10A0C00051EC1A0B31F0004108BF00281CD051ECB4
:10A0D000180B48004015401C16D051EC180B31F0FD
:10A0E000004108BF00280FD051EC1A0B0022DFF806
:10A0F0004833FEF7CDFE80F0A38055EC184B9FED62
:10A10000800B05F00042ACE051EC1A0B4800401502
:10A11000401C02D1090340F0898151EC180B480022
:10A120004015401C01D1090353D151EC180B31F0FB
:10A13000004308BF002A08D151EC1A0B4800401513
:10A14000401C46D1090344D10DE048004015401C95
:10A1500012D1090310D151EC1A0B48004015401CD4
:10A1600037D1090335D1AFF30080BDEC0A8B4FF036
:10A17000FF306FF00041F4BD51EC1A0B31F000419B
:10A1800008BF002828D151EC180B4800400D05EB02
:10A19000000234D151EC180B31F0004108BF002807
:10A1A00006D02A4651EC180B00F072F941EC180B5E
:10A1B00051EC180B20F0000231F0004308BF002AD8
:10A1C00005D048004015401C03D1090301D1AFF36D
:10A1D000008051EC180B2BE151EC1A0B4800401594
:10A1E000401C26D1090324D153EC1A2B51EC180B37
:10A1F000BDEC0A8B01B0BDE8F040FEF7A1BA002A21
:10A20000C8DD40F2FF70824209DB9FED9F0B53ECEB
:10A21000102B01F000410B4343EC182BC8E76FF300
:10A220001E5141EA025155EC184B0D4645EC184BB6
:10A23000BEE755EC184B9FED320B05F0004210E0E5
:10A2400001227E4BFEF70CFC11D89FED8F0B51ECD9
:10A25000100B55EC184BAFF3008005F0004040EABE
:10A26000010251EC100BBDEC0A8B1146F4BD53EC0E
:10A270001A2B73487349FEF763FA41EC100B53EC49
:10A28000102B9FED719B03F0004251EC190B0C4613
:10A29000144353EC192B51EC100B2346FEF706FC2C
:10A2A000FEF73CFB0446FEF7FDF941EC1B0B53ECBB
:10A2B0001B2B4FF078406649FEF742FA02460B46E8
:10A2C00051EC1A0BFEF756FB06460F4653EC1B2BC0
:10A2D00060486149FEF734FA02460B46304639467B
:10A2E000FEF748FB41EC1A0B21F0004100225B4BCA
:10A2F000FEF7CEFD08D2B0EE48AAF0EE68AA55E00F
:10A30000000000000000000053EC1A2B51EC1A0B67
:10A31000FEF716FA41EC1B0B53EC1B2B504851492E
:10A32000FEF70EFA504A514BFEF7C0FB53EC1B2BC5
:10A33000FEF706FA41EC1C0B53EC1B2B4C484D4925
:10A34000FEF7FEF94C4A4D4BFEF7B0FB53EC1B2BCE
:10A35000FEF7F6F953EC192BFEF7A8FB53EC1A2B7A
:10A36000FEF7EEF941EC190B53EC1C2BFEF79EFBAC
:10A370009FED43AB53EC1A2BFEF798FB06460F46B6
:10A3800051EC1C0B53EC192BFEF7F4FA53EC1A2B7F
:10A39000FEF78CFB02460B4630463946FEF744FC7E
:10A3A00053EC182BFEF7CCF941EC1A0B51EC1A0BBD
:10A3B0002A194800400D02EB000319D0002B17DDCD
:10A3C00040F2FF70834209DB9FED2F0B53EC102B03
:10A3D00001F000410B4343EC1A2B16E06FF31E51C2
:10A3E00041EA035155EC1A4B0D4645EC1A4B0CE073
:10A3F00051EC1A0B31F0004108BF002805D051EC98
:10A400001A0B00F045F841EC1A0B51EC1A0B20F036
:10A41000000231F0004308BF002A05D04800401573
:10A42000401C03D1090301D1AFF3008051EC1A0B9A
:10A43000BDEC0A8BF4BD000000C89CC000C89C4065
:10A44000FE822B654715F73F000000000000E03F4B
:10A45000422EE63FF2E4D5BCE7E84B3E0000903CDC
:10A46000112E5781A03F503F5843128C8F71BC3F33
:10A470004BE8A541B752013F0BBDF3DAE8708C3FC2
:10A48000000000000000F03F000000000000F07F2E
:10A49000124254D440F2FF7C1CEA11530FD06345A2
:10A4A00031D09B1863453CBF01EB0251704701F06E
:10A4B000004141EA0C510020AFF30080704750EAA0
:10A4C000410320D001F0004C91EA0C011CD0B1FAFC
:10A4D00081F30B3B9A420DD9D21A994051EA0C01F3
:10A4E000C3F1200C20FA0CFC61449840531C40F24C
:10A4F000FF7CD7E7914041EA0C01C2F1200C20FA21
:10A500000CF3194390407047B0FA80F31533202BB9
:10A51000E0D3202AEED3203A203B9A4209D9D21A1E
:10A5200000FA03F141EA0C010020531C40F2FF7CC9
:10A53000B8E700FA02F141EA0C01002070475242EC
:10A5400040F2FF7C1CEA11530DD06345DBD0B2EB27
:10A55000030C3CBFA1EB025170470CF1010221EA50
:10A56000035141F4801150EA410CCCD001F0004C71
:10A57000352A27DC30B481EA0C01B2F1200309DA74
:10A58000C2F12003044601FA03F5D0402843D1402C
:10A590009C400CE0C3F12002450020FA03F418BFF0
:10A5A00044F0010421FA03F091400C43002174F1BE
:10A5B000004550F1000051EB0C01244230BC7FF407
:10A5C0007BAF70476146002076E7FEE710F0030F8F
:10A5D00001D1012000E00020C0B2704738B504006E
:10A5E0000025042D0BD2DFF8541B51F8250000285C
:10A5F00003D0200051F8251088476D1CF1E731BDCC
:10A600000278012A09D03BD3032A14D008D3052AA3
:10A610002AD020D3062A30D032E000220A702FE060
:10A6200001220A7002898A818288CA81C2688A608E
:10A6300000220A7424E002220A7002898A81828838
:10A64000CA81C2688A60827D062A01D1012200E0A7
:10A6500000220A7414E003220A70C2888A810289E7
:10A66000CA81C2688A600BE004220A70C2888A81AB
:10A670000022CA8100228A6002E005220A70FFE7F8
:10A68000704702008A4205D2106810F1010F01D014
:10A69000012000E00020C0B27047418800EB81003B
:10A6A0000C30704738B504000D002000FFF7F5FFAF
:10A6B000854201D202200AE0A0884FF6FF7188424D
:10A6C00002D02088002801D1012000E0002032BD06
:10A6D00010B50400002C0ED0DFF85C0CC1688C4271
:10A6E00009D30069A04206D32000FFF76FFF0028BE
:10A6F00001D0012000E00020C0B210BD01000029FF
:10A7000004D00868DFF8682B904201D003200BE0EA
:10A710004868DFF8282C801A03D0401E03D101209E
:10A7200002E0002000E00320704701000022B2F5A3
:10A73000806F08D251F8220010F1010F01D00020E3
:10A7400002E0521CF3E70120704710B41423DFF835
:10A75000F04B020092B25A4322441289511802006F
:10A7600092B203FB02F304EB03025289511889B23F
:10A77000B1F5806F01DA012000E00020C0B210BC0A
:10A78000704770B402000A2000231C00A4B2022CFF
:10A7900019DA1424DFF8A85B1E00B6B266432E4413
:10A7A00076688E420DD21E00B6B204FB06F42C442D
:10A7B000646814F58054A14203D200242000138061
:10A7C00001E05B1CE1E770BC70472DE9F8430D0028
:10A7D000140010F5805610F1080702202880B846B2
:10A7E00031004046FFF74DFF00282AD03100404697
:10A7F000FFF758FF81464846C0B200280AD1DFF86B
:10A80000EC0B0168D8F8082091420FD2D8F8081054
:10A8100001600BE0002C01D0012020704846C0B23E
:10A82000022803D14FF4806028800AE02888B8F815
:10A830000210C91C081828804046FFF72EFF8046EA
:10A84000CEE7BDE8F1838A7D032A04DB0289CB8849
:10A85000DB1C9A1802814389CA889B1ADB1E43813C
:10A86000704780B5002000900823DFF8842BDFF8C4
:10A87000840B0168DFF8C00A01F00DF902BD1CB5B8
:10A880000400002000900823DFF86C2B2100DFF883
:10A89000A80A01F000F916BD2DE9F04705000E00E9
:10A8A0000024EF1C380080B240F2FE31884201DB08
:10A8B000092035E05FF00008404680B2022829DA1E
:10A8C0005FF01409DFF878AA404680B209FB00F077
:10A8D0001AF8000000281AD1390089B2404680B227
:10A8E000FFF733FF002812D001200400A6F80080F3
:10A8F000404680B209FB00F05044414689B209FB52
:10A9000001F90AEB090149897918418102E018F13E
:10A910000108D1E7E4B2002C01D0002000E00720BC
:10A92000BDE8F08730B41422DFF8143A0C00A4B26A
:10A9300054431C440D00ADB202FB05F21A44528987
:10A94000121AD21E628130BC704780B50121DFF837
:10A950009C0A01F07BF902BD2DE9F04105000E00D3
:10A960001420DFF8DC192A0092B242430A445268EC
:10A9700012F580573468002C04D02000FFF78DFEBC
:10A98000804607E02A0092B200FB02F008444068CB
:10A9900010F1080839004046FFF773FE002814D074
:10A9A00039004046FFF77EFE002803D002280AD077
:10A9B00004D3EFE7C6F80080012007E04046FFF728
:10A9C0006CFE8046E6E7002000E00020BDE8F08154
:10A9D00038B504000D006068FFF77AFE002815D036
:10A9E0002089DFF8481C098988420FD120686168F6
:10A9F000896888420AD161682800FFF7C2FE0028F2
:10AA000001D1012000E00020C0B21EE0002028801B
:10AA10002888022818DA0020009069462888FFF765
:10AA20009BFF00280CD00099886822689042F4D1DE
:10AA300000986060DFF8F40B00892081012004E0B9
:10AA40002888401C2880E3E7002032BDF8B50400C8
:10AA50000D0016001F00DFF8F00B0078002801D170
:10AA6000022034E0002E01D0002F01D105202EE07D
:10AA7000B88802282ADADFF8C818BA8814204243B6
:10AA8000885C00281ED13900B888FFF765FF0028D0
:10AA900016D03968002C03D0888822889042F2D1E1
:10AAA000002D03D008882A889042ECD18868306055
:10AAB00038687060DFF8740B00893081002006E090
:10AAC00000203860B888401CB880D1E70A20F2BD69
:10AAD0002DE9F04704000D0016001F00DDF820806E
:10AAE0001420DFF87C1B220092B242430A445268D1
:10AAF00012F10809220092B200FB02F008444068FB
:10AB000010F5805A51464846FFF7BBFD00282DD06E
:10AB100051464846FFF7C6FD002810D0022816D03F
:10AB200023D23088401C30803888B9F80210C91C04
:10AB3000081838804846FFF7B0FD8146E2E72888CC
:10AB4000401C28804846FFF7A8FD8146DAE7308898
:10AB5000401C30803888BAEB0901891011FA80F066
:10AB60003880012088F8000000E0CBE7BDE8F087DE
:10AB70002DE9F04104002100DFF8000C006801F02D
:10AB80002AF905001C260027A8463A003100404655
:10AB9000FEF7A6FD2800BDE8F08110B504002100F5
:10ABA000DFF8D80B006801F025F910BD10B50400DE
:10ABB0002100DFF8C80B006801F02AF910BD10B5BC
:10ABC00004002100DFF8B40B006801F030F910BD7B
:10ABD00080B50121DFF8040C01F046F8002801D00F
:10ABE000012000E00020C0B202BD2DE9F84F002492
:10ABF0000025032600275FF00008404680B20328A6
:10AC000080F2A980DFF83007C168424692B24FF463
:10AC10008050424301EB02094846FFF76FFD824630
:10AC20005046C0B2002843D0012862D0032840F02B
:10AC30008F804846FFF779FD002827D0DFF8B4174A
:10AC40000868002819D01420DFF8141A02222B00FB
:10AC50009BB24343CA542A0092B242430A44C2F808
:10AC600004902A0092B200FB02F008440221018104
:10AC7000DFF8B80945806D1C05E0C1F8009002209E
:10AC800088800120070054F0010410E0761E142093
:10AC9000DFF8CC192A0092B242430A44C2F8049069
:10ACA00003222B009BB200FB03F00A546D1C4FE003
:10ACB0001420DFF8AC1900222B009BB24343CA5486
:10ACC0002A0092B242430A44C2F804902A0092B287
:10ACD00042430A4410322B009BB200FB03F00844AD
:10ACE00010F108014846FFF770FD54F002046D1C96
:10ACF0002EE03800C0B2002817D01420DFF8601909
:10AD000002222B009BB24343CA542A0092B2424310
:10AD10000A44DFF8E0361B6853602A0092B200FB59
:10AD200002F00844022101816D1CDFF8C8B6CBF89F
:10AD3000009000221BF104014846FFF746FDBBF8D6
:10AD40000400022801D1042000E008200443FFE7AA
:10AD500018F1010851E7300080B2022801DA002022
:10AD600004002000C0B2BDE8F28F38B504000D0029
:10AD70000220A075002000900423221D2900DFF886
:10AD8000140B00F088FE002801D1002000E00E2006
:10AD900032BD38B504000D002069002801D0032021
:10ADA00000E00120A07500200090042314F10C02A3
:10ADB00015F10801DFF8DC0A00F06DFE002801D172
:10ADC000002000E00E2032BD38B504000D002078D0
:10ADD000032801D1052000E00620A0750020009086
:10ADE000042314F10802291DDFF8A80A00F053FE1D
:10ADF000002801D1002000E00E2032BD7CB5040007
:10AE00000D00002000900423DFF88C2A2100DFF8D9
:10AE1000280500F040FE0100002901D00E200AE0C4
:10AE20000122DFF83C382E00B6B21420464303EB73
:10AE300006000274002076BD38B584B0040001A875
:10AE400000210022002380E80E00E068019069469E
:10AE500001A8FFF7BDFD00280AD0029DA888E08068
:10AE600028882081BDF800100298FFF7C7FF00E096
:10AE70000A2005B030BD2DE9FF410500DFF81C6A4E
:10AE800033006A460021A81DFFF7E0FD0400002CF6
:10AE900005D1B1880198FFF7B1FF040007E008274A
:10AEA0005FF00008424639003000FEF719FC200030
:10AEB00004B0BDE8F08138B504000D000120A07594
:10AEC00000200090E0888300226915F10C01DFF872
:10AED000C40900F0E0FD002801D1002000E00E20B0
:10AEE00032BD10B4DFF844170889401C08810020E7
:10AEF0004880002008730022100080B2022811DA76
:10AF0000DFF85C371400A4B214204443185D002815
:10AF100001D1012000E0002013009BB20B44987285
:10AF2000521CE9E710BC704730B402000021002336
:10AF3000180080B2022825DADFF8F046180080B247
:10AF40002044807A00281BD000201D00ADB22C4484
:10AF5000A0721424DFF80857180080B26043284418
:10AF6000C06800280CD1180080B204FB00F405EB87
:10AF70000400007C012803D113800120010001E0BE
:10AF80005B1CD5E70800C0B230BC704780B5052017
:10AF9000DFF898160870DFF85C0402218180002336
:10AFA00001220168DFF8EC0800F0BCFD02BD70B5BD
:10AFB000DFF878164C881425DFF88463200080B20F
:10AFC00068433044C06800280FD104200870002373
:10AFD0000122200080B205FB00F506EB0500416868
:10AFE000DFF8B00800F09EFD01E0FFF7CFFF70BD75
:10AFF0007CB5DFF838064468DFF8F8130A688988FA
:10B0000002EB81056688F61C032101700021009186
:10B01000310089B28B0042682900DFF8780800F01F
:10B020003AFD76BD80B5DFF8B009011D4088FFF715
:10B0300093FC002802D0FFF7DBFF01E0FFF7B7FF2A
:10B0400002BD80B5DFF8E40506210170DFF81016B7
:10B0500042881420424301EB02004068FFF70FFCD6
:10B0600002BD80B5DFF8C4050721017000214160F1
:10B07000FFF7F7FB02BD10B5DFF8B045A01CFFF7E6
:10B0800053FF002808D1002020700020608000209D
:10B09000606041F61D5001E0FFF7C4FF10BDDFF80E
:10B0A0008C0540684188C91CDFF848239388CB1879
:10B0B0009380704730B4DFF83C1308681422DFF83F
:10B0C0006C35DFF89C455D88554325446D680D60FF
:10B0D0005D885543254468605B8802FB03F2224487
:10B0E0008B88138102228A8030BC704710B5DFF84C
:10B0F0003C45207800280AD003280DD0042810D021
:10B10000052813D0062811D0072812D014E0FFF725
:10B11000E8FE012020700FE0FFF7C1FF0220207041
:10B120000AE0FFF7C7FF0620207005E00720207027
:10B1300002E001202070FFE710BD0000E098002031
:10B140002DE9F04104000E000F25002C05D0002051
:10B15000DFF888184860012088E03079002805D0A1
:10B1600002283AD008D3032844D076E00120307179
:10B17000FFF777FB050070E000275FF0000840460E
:10B1800080B202281BDA14206D49424692B2424333
:10B190008A5C022A10D1002243469BB24343CA5420
:10B1A00001221700424692B200FB02F008444068B8
:10B1B000FFF765FB050002E018F10108DFE7380042
:10B1C000C0B2002808D1DFF8140801210170002165
:10B1D000416041F61D5049E03FE000203071854854
:10B1E00002218180002301220168534800F09AFC6B
:10B1F000050032E0002030717E4F3868FFF73FFBDA
:10B200000500DFF828044088396814224C4B844636
:10B210001FFA8CFC02FB0CFC9C44DCF804C0C7F851
:10B2200000C084461FFA8CFC02FB0CFC9C44CCF84A
:10B23000041084461FFA8CFC02FB0CFC9C44B7F8FB
:10B2400004E0ACF808E05FF0020CA7F804C00027A7
:10B2500080B202FB00F29F54FFE7002D05D00020D2
:10B26000DFF8781748600E2000E00020BDE8F0818C
:10B27000DEC0ADDE2DE9F04104000E003049B28A97
:10B280001420424301EB0207002C05D031003800A6
:10B29000FFF7D9FA01204DE07868398900EB810881
:10B2A000B07D002817D002281BD026D3042804D054
:10B2B0001DD3062833D026D334E0DFF8240700213D
:10B2C0004160B1690160DFF81C17FFF781FB0028BE
:10B2D00001D10A202EE041463000FFF746FD05006F
:10B2E00021E041463000FFF754FD05001BE04146D8
:10B2F0003000FFF7E0FD050015E041463000FFF7A4
:10B3000063FD05000FE00620B075DFF8D806018860
:10B31000DFF8CC064068FFF771FD050003E041F659
:10B320001D5500E00F25002D03D031003800FFF738
:10B330008AFA2800BDE8F0812C3D0020FE011EF1B4
:10B340008896002038B504000D00002C01D00120A3
:10B3500019E02879002803D0022810D006D311E084
:10B36000022028712800FFF767FD0CE02800FFF796
:10B3700082FD0A2802D141F61D51080003E041F682
:10B380001D5000E00F2032BD38B50400002C01D064
:10B39000012029E0A54D287B002802D00020287339
:10B3A00001E0FFF7A3FE287801280AD002280BD07D
:10B3B00003280CD004280DD006280ED007280FD063
:10B3C00011E0FFF758FE0FE0FFF72CFE0CE0FFF74F
:10B3D0000FFE09E0FFF7EBFD06E0FFF732FE03E0AA
:10B3E000FFF73FFE00E00F2032BD0000649A00200E
:10B3F000706C0400F8990020786C040030B585B0BA
:10B400000400DFF8E4552868002804D1DFF8DC05E3
:10B41000FFF7CCFB286028680078012809D01FD3EB
:10B4200003280CD00BD305280FD00ED3062812D03A
:10B4300016E029682000FFF783FE040012E0296867
:10B440002000FFF717FF04000CE029682000FFF739
:10B4500079FF040006E02000FFF796FF040001E0FA
:10B460000F200400002C1ED068461421FEF76CF952
:10B4700041F61D50844201D1002000E020000190DF
:10B4800069462868FFF7BCF86846FFF7A7F8002070
:10B49000286000200400DFF85405FFF790FBFFF759
:10B4A00097FB0028ADD105B030BD80B50121DFF894
:10B4B0002C0300F0BDFB002802D10020FFF79EFF07
:10B4C00001BD10B504006068FFF798FF10BD2DE9BD
:10B4D000FE4F04000D00160099465FF0000A5FF071
:10B4E000000859480078002801D102206DE0002DA5
:10B4F00001D1052069E028884FF6FF71884202D00B
:10B500006888002801D104205FE06868FFF75EF8D2
:10B51000002801D1032058E0002E0BD1D5F808B047
:10B520006946584680B2FFF7B7F90700002F06D0EA
:10B5300038004AE03088ADF80000B6F802B001A843
:10B54000FFF716FB8046B8F1000F07D1BDF80010D9
:10B55000584680B2FFF7E6F9082036E088F80090F8
:10B56000002088F81600BDF80000A8F814006868EC
:10B57000C8F81000FFF7E9F9C8F80C002888A8F807
:10B5800008006888A8F80400A8F806B04846C0B2C9
:10B59000032805D1042088F816002068C8F8180090
:10B5A000A8F80AA001A8FFF7F8FA002C0AD000209A
:10B5B0006060D8F80C0020600020A072DFF818044A
:10B5C00000892081FFF771FF0020BDE8FE8F10B5D4
:10B5D0000400DFF81C040168042901D10C2008E0F4
:10B5E000DFF81014026841F82240012100F02EFB20
:10B5F000002010BDDFF800040068DFF800140968BF
:10B60000DFF8FC23126810F1010F01D1100048434C
:10B61000704738B54FF44054DFF87852FFF7EAFF2F
:10B6200028612869001BE86031BD000000990020F6
:10B6300080B5FFF7EEFF0022DFF8C813DFF85402F1
:10B6400000F0E6F902BD0000F099002080B51C234F
:10B650008C22DFF8B4134948006800F094FB01BD68
:10B660008896002070B586B001A81421FEF76CF80A
:10B67000DFF868532878002804D001A8FEF7AEFF51
:10B68000002053E0281D00F0FCFA002801D0002023
:10B690004CE0FFF7CDFF0400002C01D0200045E076
:10B6A000FFF7D4FFFFF7A1FA06003000C0B2002870
:10B6B00004D0022802D0062802D00AE00B2035E090
:10B6C000012028700020686001A8FEF787FF002095
:10B6D0002CE06846FFF74CFA0500002D01D1082048
:10B6E00024E0012028703000C0B201280CD00328CB
:10B6F0000AD0052811D007280FD0092807D00A281A
:10B7000008D00B2803D00BE00020287108E00320AC
:10B71000287105E00220287102E001202871FFE76E
:10B720006846FFF73AFAFFF7C0FE002006B070BD8A
:10B730007CB504000D00002C01D0002D01D10520A6
:10B740001BE069462000FFF743F9002814D0666823
:10B750000121DFF8B822BDF800301420434302EB8A
:10B7600003000C3000F072FA2E6060680C306860E4
:10B770000120A072002000E00A2076BD486D040080
:10B780001CB50400002C01D1052025E069462000ED
:10B79000FFF71EF900281ED01421DFF87022BDF833
:10B7A000000048431044C068002812D0A07A002846
:10B7B0000FD0BDF8000048431044BDF8003001FB35
:10B7C00003F11144C968491EC1600020A072002025
:10B7D00002E0062000E00A2016BD00005C9A00206E
:10B7E00038B504000D000223002229002000FFF7D5
:10B7F0006EFE32BD38B504000D00002C01D10520CD
:10B8000005E00323002229002000FFF760FE32BD7F
:10B8100038B5050071480078002801D102201AE0EF
:10B8200028004FF6FF7180B2884201D1042012E057
:10B830006846FFF79DF90400002C01D108200AE0BA
:10B840000520207001202071E5806846FFF7A5F9EA
:10B85000FFF72BFE002032BD1CB5604800780028A1
:10B8600001D1022015E06846FFF782F90400002CA0
:10B8700001D108200DE0062020706846FFF78DF901
:10B8800055490878002801D001200873FFF70DFE04
:10B89000002016BD2C3D00204C6D0400009A0020B5
:10B8A00033B581B014001D002B00220002A901A8AD
:10B8B000FFF7CCF83EBD31B50C0015002B0022007F
:10B8C00069460020FFF7C2F832BD31B50C00150003
:10B8D0002B00220000216846FFF7B8F832BD0200B5
:10B8E000002A01D0002901D1052002E0106808607B
:10B8F000002070472DE9FC4704004FF480650026C6
:10B9000036480078002801D1022062E0002C01D1E5
:10B9100005205EE05FF012085FF0000927004A464C
:10B9200041463800FDF7DCFE032020800027380068
:10B9300080B202284CDA5FF01408DFF8D0903800AB
:10B9400080B208FB00F04844B0F808A0380080B28C
:10B9500008FB00F04844408910EB0A0A380080B226
:10B9600008FB00F048444068FEF7C8FE032802D1F7
:10B970002088401E20806188380080B208FB00F0DB
:10B980004844C068411861802189380080B208FBB2
:10B9900000F809EB080040894118218160891AEB01
:10B9A00000006081B5EB0A000600A089310089B271
:10B9B000884200D2A68114F11000009014F10E0309
:10B9C000A21D211D380080B2FFF782F87F1CAEE770
:10B9D0000020BDE8F687000000990020F0990020C3
:10B9E00074990020DC9A0020689A00206C9A00204C
:10B9F000609A0020E0980020141000101000001041
:10BA000014000010F0660400F88F002088960020D3
:10BA100070B505000C001600002D01D10E2009E0C4
:10BA2000002C01D10E2005E02C60310028002A688E
:10BA30001268904770BDF8B506000F0015001C0095
:10BA4000002E01D10E2025E0002D01D10E2021E095
:10BA50003068002801D108201CE0002C01D1092009
:10BA600018E0380000F09BF8002801D1102011E008
:10BA700022003900300000F085F8002801D11020A4
:10BA800008E023002A0039003000D6F800C0DCF8B6
:10BA900008C0E047F2BD2DE9FC4104000F0015008D
:10BAA0001E00DDF82080002C01D10E2038E0002D92
:10BAB00001D10E2034E02068002801D108202FE0B9
:10BAC000002E01D109202BE060684068B6FBF0F140
:10BAD00000FB1160002801D0092021E0380000F0AF
